S01B0000313174682D7765656B2D74696D65636C6F636B2E737265630A
S113000045C000004BC0000049C0000047C00000CC
S113001045C0000044C000005EC000003FC00000B6
S11300203DC000003BC0000039C0000037C00000E4
S113003035C0000033C0000031C000002FC00000F4
S11300402DC000002BC0000029C0000027C0000004
S113005025C0000023C0000021C000001FC0000014
S11300601DC000001BC0000019C0000017C0000024
S113007015C0000013C0000011C000000FC0000034
S11300800DC000000BC0000009C0000011241FBEF9
S1130090CFEFD0E1DEBFCDBF3AD092C0B1CF1F9237
S11300A00F920FB60F9211242F938F939F9380EF8B
S11300B0809362002FEF81EE94E0215080409040C5
S11300C0E1F700C000009F918F912F910F900FBE18
S11300D00F901F9018951F920F920FB60F92112434
S11300E02F938F939F9380E2809362002FEF83EC92
S11300F099E0215080409040E1F700C000009F91BA
S11301008F912F910F900FBE0F901F90189580EF35
S1130110809361008AB78E7F8ABF8AB782608ABF64
S113012089B7806189BF8AB78B7F8ABF8AB78860A5
S11301308ABF89B7806289BF7894E2E6F0E030E153
S113014090E280E420E84FEF57E863E141505040EB
S11301506040E1F700C0000030834FEF53EC69E0EA
S1130160415050406040E1F700C0000090834FEFE1
S113017053EC69E0415050406040E1F700C000009A
S113018080834FEF53EC69E0415050406040E1F709
S113019000C0000020834FEF57E863E14150504016
S11301A06040E1F700C0000080834FEF57E863E14F
S11301B0415050406040E1F700C000009083C3CF3D
S10701C0F894FFCFDD
S9030000FC
