:1000000045C0000060C000005EC000005CC0000091
:100010005AC0000095C00000B4C0000054C00000E9
:1000200052C0000050C000004EC000004CC0000094
:100030004AC0000048C0000046C00000CDC000001B
:1000400042C0000040C000003EC000003CC00000B4
:100050003AC0000038C0000036C0000034C00000C4
:1000600032C0000030C000002EC000002CC00000D4
:100070002AC0000028C0000026C0000024C00000E4
:1000800022C0000020C000001EC0000011241FBEBE
:10009000CFEFD0E1DEBFCDBF11E0A0E0B1E0E0EFF7
:1000A000F2E000E00BBF02C007900D92A032B10752
:1000B000D9F721E0A0E2B1E001C01D92A632B2075B
:1000C000E1F7B6D013C19CCFFB01E85FFE4F208162
:1000D0002BBB24E023B913B86130710531F4FC0166
:1000E000E45FFE4F80818BBB05C0FC01EA5EFE4FE2
:1000F00080818BBB88E083B913B808958FEF8ABBEA
:100100008CE082B984E083B98FE08BBB089581E0F5
:1001100083BF12BE87BF8FEF86BF8AB78E7F8ABF2D
:100120008AB782608ABF89B7806189BF8AB78B7FAF
:100130008ABF8AB788608ABF89B7806289BF0895FD
:100140001F920F920FB60F9211248F939F9380915D
:10015000240190912501019739F482E090E0909379
:1001600025018093240106C081E090E09093250151
:10017000809324019F918F910F900FBE0F901F903D
:1001800018951F920F920FB60F9211248F939F9381
:100190008091240190912501019729F41092230167
:1001A0001092220108C01092230110922201109295
:1001B0002501109224019F918F910F900FBE0F90F7
:1001C0001F9018958EE083BF12BE82E087BF8FEF2D
:1001D00086BF8CE781BF08951F920F920FB60F92D2
:1001E00011248F939F93809120019091210101967A
:1001F0009093210180932001059798F0809124012C
:1002000090912501019769F4809122019091230139
:100210000196909323018093220110922101109264
:1002200020019F918F910F900FBE0F901F901895F6
:1002300065DF6DDFC7DF789400E011E0C3E0D0E058
:10024000F801619171918F018091220190912301B8
:100250002AD0AB019B01ADECBCEC39D096958795CB
:1002600096958795969587959C01220F331F880F49
:10027000991F880F991F880F991F820F931FBE0126
:100280009A01281B390BC9011FDF2197C8F68091FD
:100290002201909123018031974271F6109223013F
:1002A00010922201C9CFAA1BBB1B51E107C0AA1F94
:1002B000BB1FA617B70710F0A61BB70B881F991F07
:1002C0005A95A9F780959095BC01CD010895A29FFC
:1002D000B001B39FC001A39F700D811D1124911D1A
:1002E000B29F700D811D1124911D0895F894FFCFC8
:1002F00001000A006400E80301020408BF86DBCFA6
:10030000E6EDFDA7FFEF3F065B4F666D7D277F6F34
:00000001FF
