S01200004C696E655472616365722E7372656329
S11300006DC0000088C0000086C0000084C00000ED
S113001082C000006EC1000058C100007CC0000016
S11300207AC0000078C0000076C0000074C00000F0
S113003072C0000070C000006EC00000E2C1000089
S11300406AC0000068C0000066C0000064C0000010
S113005062C0000060C000005EC000005CC0000020
S11300605AC0000058C0000056C0000054C0000030
S113007052C0000050C000004EC000004CC0000040
S11300804AC0000048C0000046C00000BC00C000D8
S1130090BE00C400CA00C200CA00C800E500CA000D
S11300A0CA00C600D500D900D700DD00E300DB009C
S11300B0E300E100E700E300E300DF00FB01FB01F4
S11300C0FE01FE01FE01FE01F501E701FB01FE0157
S11300D0FE01E101FE01E401EE01CC0111241FBE89
S11300E0CFEFD0E1DEBFCDBF11E0A0E0B1E0E4EF9F
S11300F0F5E000E00BBF02C007900D92A831B107F4
S1130100D9F721E0A8E1B1E001C01D92A032B20705
S1130110E1F709D26DC274CF1BBA1ABA18BA17BA6A
S113012015BA14BA12BA8FEF81BB13B812B8109271
S11301306200109261001092650083E08093640075
S11301400895F8941CBE10926D00E6DF15BE10925F
S11301506A001ABE19BE17BE10927D0078940895E5
S11301608F706623C9F090E0FC013197EC30F10503
S113017088F4EA5BFF4F24C283E0089582E0089587
S113018086E0089584E008958CE0089588E0089559
S113019089E008958CE0089590E0FC013197EC30FB
S11301A0F10588F4EE5AFF4F0BC289E0089581E00F
S11301B0089583E0089582E0089586E0089584E038
S11301C008958CE008958CE0089581E0089588E016
S11301D00895807F662329F18034D9F038F4803281
S11301E0A1F0803381F08031D1F40BC08038A9F0C4
S11301F018F4803661F013C08039C1F1803C59F0A5
S11302000EC080E3089580E2089580E6089580E4B6
S1130210089580EC089580E8089580E9089580ECBD
S113022008958034D9F038F48032A1F0803381F01D
S11302308031D1F40BC08038A9F018F4803661F015
S113024013C08039A9F0803C59F00EC080E90895AC
S113025080E1089580E3089580E2089580E608959A
S113026080E4089580EC089580EC089580E1089579
S113027080E80895FB01E65FFE4F20812BBB1A9AAC
S11302801A98825F9E4FFC0180818BBB1B9A1B983E
S113029008958FEF8ABB82B18C6082B91A9A8FE07D
S11302A08BBB08958AB78E7F8ABF8AB782608ABF64
S11302B089B7806189BF8AB78B7F8ABF8AB7886014
S11302C08ABF89B7806289BF08951F920F920FB6C3
S11302D00F9211248F939F9381E090E090931F01DC
S11302E080931E019F918F910F900FBE0F901F90CE
S11302F018951F920F920FB60F9211248F939F930C
S113030081B790E001978233910528F090931D0105
S113031080931C0106C084E690E090931D018093B5
S11303201C0180911C0181BF9F918F910F900FBE82
S11303300F901F9018958EE083BF12BE82E087BF96
S11303408FEF86BF84E681BF0895813051F018F0A5
S1130350823071F013C08091000161E03ADF809334
S113036000018091010160E0FBDE8093010106C081
S11303708091000161E02DDF8093000190910101E3
S113038080910001892B82BB089580319105B0F5DD
S1130390FC01E25AFF4F14C180911A01813071F4BB
S11303A010921A0180911B018F5F80931B0183308F
S11303B028F010921F0110921E01089580E0C5CF0D
S11303C0089582E0C2CF089581E0BFCF089583E00D
S11303D090E090931F0180931E01089582E090E0C5
S11303E090931F0180931E01089581E080931A0168
S11303F080E0ABCF089580E0A8CF089580E0A5CF3A
S113040008951F920F920FB60F9211240BB60F92FC
S11304102F933F934F935F936F937F938F939F9308
S1130420AF93BF93EF93FF9380911E0190911F01AF
S11304308230910571F580911801909119018836E7
S113044021E0920764F480E080DF809118019091AC
S113045019010196909319018093180151C08637B0
S1130460924064F481E071DF809118019091190148
S11304700196909319018093180142C010921901BA
S11304801092180181E090E090931F0180931E0167
S113049037C08330910571F580911801909119014D
S11304A0883621E0920764F480E04FDF80911801E0
S11304B0909119010196909319018093180120C01D
S11304C08637924064F482E040DF80911801909175
S11304D019010196909319018093180111C010928B
S11304E019011092180181E090E090931F0180930C
S11304F01E0106C0019721F483B38F7090E045DF9D
S1130500FF91EF91BF91AF919F918F917F916F91E7
S11305105F914F913F912F910F900BBE0F900FBEA3
S11305200F901F9018950DDEB4DEBCDE04DF8FEF54
S113053081BB789481B790E090931D0180931C0156
S113054002E011E0C3E0D0E0F801619171918F0104
S113055080911C0190911D011FD0AB019B01ADEC5A
S1130560BCEC37D096958795969587959695879503
S11305709C01220F331F880F991F880F991F880F22
S1130580991F820F931FBE019A01281B390BC901C1
S113059071DE2197C8F6CECFAA1BBB1B51E107C061
S11305A0AA1FBB1FA617B70710F0A61BB70B881FFF
S11305B0991F5A95A9F780959095BC01CD0108958E
S11305C0EE0FFF1F0024001C0BBE0790F691E02DD8
S11305D00994A29FB001B39FC001A39F700D811D18
S11305E01124911DB29F700D811D1124911D089538
S10705F0F894FFCFA9
S11305F40C0C01000A006400E803010204083F062D
S10B06045B4F666D7D277F6FDB
S9030000FC
