S01200004C696E655472616365722E7372656329
S11300006DC0000088C0000086C0000084C00000ED
S113001082C00000D5C10000BFC100007CC0000048
S11300207AC0000078C0000076C0000074C00000F0
S113003072C0000070C000006EC00000A4C30000C5
S11300406AC0000068C0000066C0000064C0000010
S113005062C0000060C000005EC000005CC0000020
S11300605AC0000058C0000056C0000054C0000030
S113007052C0000050C000004EC000004CC0000040
S11300804AC0000048C0000046C00000CF00D300B2
S1130090D100D700DD00D500DD00DB00F800DD0075
S11300A0DD00D900E800EC00EA00F000F600EE0004
S11300B0F600F400FA00F600F600F200A00278025E
S11300C07102AC0271026302710263028C02AC021F
S11300D06A025B02AC025F026A02270211241FBE9D
S11300E0CFEFD0E1DEBFCDBF11E0A0E0B1E0ECE89E
S11300F0F9E000E00BBF02C007900D92AC31B107EC
S1130100D9F721E0ACE1B1E001C01D92AA32B207F7
S1130110E1F7C7D339C474CF109227011092260196
S113012010922501109224011092230110922201B1
S1130130109221011092200184E681BF08951BBA18
S11301401ABA18BA17BA15BA14BA12BA8FEF81BB11
S113015013B812B8109262001092610010926500F8
S113016083E0809364000895F8941CBE10926D009F
S1130170E6DF15BE10926A001ABE19BE17BE1092B1
S11301807D00789408958F706623C9F090E0FC0197
S11301903197EC30F10588F4EA5BFF4FDDC383E06F
S11301A0089582E0089586E0089584E008958CE03F
S11301B0089588E0089589E008958CE0089590E01A
S11301C0FC013197EC30F10588F4EE5AFF4FC4C3BB
S11301D089E0089581E0089583E0089582E0089518
S11301E086E0089584E008958CE008958CE00895F5
S11301F081E0089588E00895807F662329F18034A2
S1130200D9F038F48032A1F0803381F08031D1F418
S11302100BC08038A9F018F4803661F013C080391F
S1130220C1F1803C59F00EC080E3089580E2089546
S113023080E6089580E4089580EC089580E80895A8
S113024080E9089580EC08958034D9F038F4803240
S1130250A1F0803381F08031D1F40BC08038A9F053
S113026018F4803661F013C08039A9F0803C59F04D
S11302700EC080E9089580E1089580E3089580E246
S1130280089580E6089580E4089580EC089580EC54
S1130290089580E1089580E80895FB01E45FFE4F2E
S11302A020812BBB1A9A1A98805F9E4FFC01808193
S11302B08BBB1B9A1B9808958FEF8ABB82B18C600D
S11302C082B91A9A8FE08BBB08958AB78E7F8ABF52
S11302D08AB782608ABF89B7806189BF8AB78B7FFA
S11302E08ABF8AB788608ABF89B7806289BF089548
S11302F08DE083BF12BE82E087BF8FEF86BF8DE69D
S113030081BF0895CF93C62F813089F018F08230D1
S113031029F13AC08091020161E06EDF809302010D
S11303208091030160E02FDF809303012DC0809151
S1130330030160E028DF8093030180911F018F5F38
S1130340C81718F080931F011FC010921F018091DD
S1130350020161E051DF8093020116C08091020125
S113036061E04ADF8093020180911F018F5FC8170B
S113037018F080931F0108C010921F01809103019F
S113038060E001DF809303019091030180910201F9
S1130390892B82BBCF9108951F920F920FB60F92B3
S11303A011248F939F9381E090E09093290180938F
S11303B028019F918F910F900FBE0F901F90189559
S11303C01F920F920FB60F9211248F939F938091D7
S11303D01A0190911B018734910530F00597909391
S11303E01B0180931A0105C0029790931B0180930F
S11303F01A0180911A0190911B018832910598F499
S11304008EE690E090931B0180931A0181BF809146
S11304101A0190911B018436910518F484E681BF7A
S113042006C081BF04C084369105D8F7F7CF9F91E9
S11304308F910F900FBE0F901F90189590E0803110
S1130440910508F089C0FC01E25AFF4F85C28091F2
S113045024018130B9F410922201109223011092E8
S11304602401809125018F5F809325011092010161
S1130470109200018330D8F01092290110922801C3
S11304804BCE089580912301882339F082E090E0D7
S113049090932901809328010AC080912201882326
S11304A031F083E090E0909329018093280160E08B
S11304B080E028CF089561E082E024CF089561E0D0
S11304C081E020CF089581E08093220160E080E004
S11304D019CF089581E08093230160E080E012CF7A
S11304E0089581E08093240160E080E00BCF0895BB
S11304F080912001813049F484E090E090932901B7
S11305008093280110922001089581E080932101B5
S113051060E080E0F7CE089580912101813049F4B4
S113052085E090E0909329018093280110922101A5
S1130530089581E08093200160E080E0E3CE089597
S1130540109225011092240110922301109222018D
S113055060E080E0D7CE089560E080E0D3CE0895D7
S113056021B730E040911A0150911B014217530703
S113057060F420911E0130E02817390731F481B767
S1130580815081BF10921E01089580911E018F5FDA
S113059080931E010895AC0191B79A3560F42091BF
S11305A01E0130E02417350731F481B78F5F81BF16
S11305B010921E01089580911E018F5F80931E0189
S11305C00895EF92FF920F931F93CF937C018B01B9
S11305D0C22F8091230181111EC0642F81E092DE1D
S11305E080911C0190911D01019690931D018093AF
S11305F01C01081719070CF04FC0CD3009F04CC08E
S113060081E090E0909329018093280110921D01CC
S113061010921C0141C080911A0190911B018035F8
S11306209105C0F460E080E06DDE80911C01909142
S11306301D01019690931D0180931C01E816F90693
S11306405CF5109223011092220110921D01109268
S11306501C0122C0223010F0283041F410922301F2
S1130660109222016FEF81E04DDE16C02D3069F04B
S11306702F3019F02B3069F404C060E080E042DED2
S11306800BC061E082E03EDE07C061E081E03ADE5B
S113069003C060E080E036DECF911F910F91FF90A0
S11306A0EF900895EF92FF920F931F93CF937C01E5
S11306B08B01C22F8091220181111EC0642F82E020
S11306C021DE80911C0190911D01019690931D01E2
S11306D080931C01081719070CF04FC0CB3009F0A8
S11306E04CC081E090E090932901809328011092FE
S11306F01D0110921C0141C080911A0190911B01AF
S113070080359105C0F460E080E0FCDD80911C013F
S113071090911D01019690931D0180931C01E81690
S1130720F9065CF5109223011092220110921D012A
S113073010921C0122C0223010F0283041F4109293
S11307402301109222016FEF82E0DCDD16C02D3010
S113075069F02F3019F02B3069F404C060E080E0B8
S1130760D1DD0BC061E082E0CDDD07C061E081E056
S1130770C9DD03C060E080E0C5DDCF911F910F911A
S1130780FF90EF9008951F920F920FB60F921124CD
S11307900BB60F922F933F934F935F936F937F9377
S11307A08F939F93AF93BF93CF93EF93FF938091D6
S11307B0000190910101883E23E092072CF40196F8
S11307C09093010180930001C3B3CF7080912801FD
S11307D0909129018230910559F483E090E0DBDEA9
S11307E02C2F43E060E570E080EF90E0EADE45C046
S11307F08330910559F483E090E0CDDE2C2F43E063
S113080060E570E080EF90E04DDF37C08430910503
S1130810A9F4CB3011F0CD3039F481E090E090931D
S113082029018093280129C0CF3021F463E081E0BD
S113083069DD23C060E080E065DD1FC0853091057F
S1130840A9F4CB3011F0CD3039F481E090E09093ED
S113085029018093280111C0CF3021F463E082E0A4
S113086051DD0BC060E080E04DDD07C0019729F445
S113087087E090E075DE8C2FE1DDFF91EF91CF9161
S1130880BF91AF919F918F917F916F915F914F91A4
S11308903F912F910F900BBE0F900FBE0F901F90A2
S11308A0189562DC09DD11DD23DD36DC8FEF81BBB9
S11308B078940F2EF8EEEF2EF3E0FF2EF02D04E0E7
S11308C011E0C3E0D0E0F801619171918F01809152
S11308D02801909129018E9D90018F9D300D9E9D40
S11308E0300D112480911A0190911B01820F931FE6
S11308F01FD0AB019B01ADECBCEC37D0969587952E
S113090096958795969587959C01220F331F880F9E
S1130910991F880F991F880F991F820F931FBE017B
S11309209A01281B390BC901B8DC219760F6C7CF9F
S1130930AA1BBB1B51E107C0AA1FBB1FA617B70701
S113094010F0A61BB70B881F991F5A95A9F780951D
S11309509095BC01CD010895EE0FFF1F0024001CEB
S11309600BBE0790F691E02D0994A29FB001B39FAE
S1130970C001A39F700D811D1124911DB29F700DA4
S10F0980811D1124911D0895F894FFCFEF
S113098CE8030C0C01000A006400E80301020408EB
S10F099C3F065B4F666D7D277F6F640093
S9030000FC
