S01200004C696E655472616365722E7372656329
S11300006DC0000088C0000086C0000084C00000ED
S113001082C00000ABC1000095C100007CC000009C
S11300207AC0000078C0000076C0000074C00000F0
S113003072C0000070C000006EC000001EC300004B
S11300406AC0000068C0000066C0000064C0000010
S113005062C0000060C000005EC000005CC0000020
S11300605AC0000058C0000056C0000054C0000030
S113007052C0000050C000004EC000004CC0000040
S11300804AC0000048C0000046C00000CF00D300B2
S1130090D100D700DD00D500DD00DB00F800DD0075
S11300A0DD00D900E800EC00EA00F000F600EE0004
S11300B0F600F400FA00F600F600F2002F0309033C
S11300C00303AF020303C1020303D3021C033A0375
S11300D0EB022F02D9026F02FD02FC0111241FBEA4
S11300E0CFEFD0E1DEBFCDBF11E0A0E0B1E0E2E7A9
S11300F0FBE000E00BBF02C007900D92AC31B107EA
S1130100D9F721E0ACE1B1E001C01D92AC32B207F5
S1130110E1F7BAD42CC574CF1092290110922801AA
S113012010922701109226011092250110922401A9
S1130130109223011092220184E681BF08951BBA14
S11301401ABA18BA17BA15BA14BA12BA8FEF81BB11
S113015013B812B8109262001092610010926500F8
S113016083E0809364000895F8941CBE10926D009F
S1130170E6DF15BE10926A001ABE19BE17BE1092B1
S11301807D00789408958F706623C9F090E0FC0197
S11301903197EC30F10588F4EA5BFF4FD0C483E07B
S11301A0089582E0089586E0089584E008958CE03F
S11301B0089588E0089589E008958CE0089590E01A
S11301C0FC013197EC30F10588F4EE5AFF4FB7C4C7
S11301D089E0089581E0089583E0089582E0089518
S11301E086E0089584E008958CE008958CE00895F5
S11301F081E0089588E00895807F662329F18034A2
S1130200D9F038F48032A1F0803381F08031D1F418
S11302100BC08038A9F018F4803661F013C080391F
S1130220C1F1803C59F00EC080E3089580E2089546
S113023080E6089580E4089580EC089580E80895A8
S113024080E9089580EC08958034D9F038F4803240
S1130250A1F0803381F08031D1F40BC08038A9F053
S113026018F4803661F013C08039A9F0803C59F04D
S11302700EC080E9089580E1089580E3089580E246
S1130280089580E6089580E4089580EC089580EC54
S1130290089580E1089580E80895FB01E45FFE4F2E
S11302A020812BBB1A9A1A98805F9E4FFC01808193
S11302B08BBB1B9A1B9808958FEF8ABB82B18C600D
S11302C082B91A9A8FE08BBB08958AB78E7F8ABF52
S11302D08AB782608ABF89B7806189BF8AB78B7FFA
S11302E08ABF8AB788608ABF89B7806289BF089548
S11302F08DE083BF12BE82E087BF8FEF86BF8DE69D
S113030081BF0895813051F018F0823071F013C02C
S11303108091020161E070DF80930201809103010A
S113032060E031DF8093030106C08091020161E047
S113033063DF809302019091030180910201892B74
S113034082BB08951F920F920FB60F9211248F93C0
S11303509F9381E090E090932B0180932A019F91D9
S11303608F910F900FBE0F901F9018951F920F92B0
S11303700FB60F9211248F939F9380911A0190913D
S11303801B018D33910530F0059790931B018093E9
S11303901A0105C0019790931B0180931A01809163
S11303A01A0190911B018832910598F48EE690E031
S11303B090931B0180931A0181BF80911A0190913F
S11303C01B018436910518F484E681BF06C081BF01
S11303D004C084369105D8F7F7CF9F918F910F9081
S11303E00FBE0F901F9018958031910508F042C1FF
S11303F0FC01E25AFF4FA3C3809126018130B9F476
S11304001092240110922501109226018091270157
S11304108F5F8093270110920101109200018330B5
S1130420D8F010922B0110922A0176CE0895809173
S11304302501882339F082E090E090932B0180938A
S11304402A010AC080912401882331F083E090E0DE
S113045090932B0180932A0180E054CF08958091DA
S113046026018130B9F410922401109225011092D2
S11304702601809127018F5F80932701109201014B
S113048010920001833030F010922B0110922A0157
S113049043CE089580912001813029F480E032DF39
S11304A01092200105C08F5F8093200182E02ADF33
S11304B080912501882339F082E090E090932B010C
S11304C080932A01089580912401882309F4D4C0DB
S11304D083E090E090932B0180932A01089580910A
S11304E026018130B9F41092240110922501109252
S11304F02601809127018F5F8093270110920101CB
S113050010920001833030F010922B0110922A01D6
S113051003CE089580912101813029F480E0F2DE38
S11305201092210105C08F5F8093210181E0EADEF2
S113053080912501882339F082E090E090932B018B
S113054080932A01089580912401882309F494C09A
S113055083E090E090932B0180932A01089581E039
S11305608093240180912001813029F480E0CADE47
S11305701092200108958F5F8093200182E0C2CE03
S1130580089581E08093240180912101813029F430
S113059080E0B8DE1092210108958F5F80932101DD
S11305A081E0B0CE089581E08093240180E0AACE5A
S11305B0089581E08093250180912101813029F4FF
S11305C080E0A0DE1092210108958F5F80932101C5
S11305D081E098CE089581E08093250180912001E7
S11305E0813029F480E08EDE1092200108958F5F1F
S11305F08093200182E086CE089581E080932501D6
S113060080E080CE089581E08093260180E07ACE58
S1130610089580912201813049F484E090E0909320
S11306202B0180932A0110922201089581E0809386
S1130630230180E067CE089580912301813049F43D
S113064085E090E090932B0180932A01109223017E
S1130650089581E08093220180E054CE08951092A1
S1130660270110922601109225011092240180E0A6
S113067049CE089580E046CE08951F920F920FB69A
S11306800F9211240BB60F922F933F934F935F93C6
S11306906F937F938F939F93AF93BF93CF93DF9386
S11306A0EF93FF9383B38F70C82FD0E020910001A4
S11306B030910101283E93E0390734F42F5F3F4F16
S11306C0309301012093000120912A0130912B01E4
S11306D02230310509F0B9C091B7963450F49091A5
S11306E01F019A3030F091B79F5F91BF10921F01A4
S11306F005C090911F019F5F90931F019091250168
S1130700911129C080911E01833029F480E0FADD23
S113071010921E0105C08F5F80931E0181E0F2DDFF
S113072080911C0190911D01019690931D0180936D
S11307301C01813591050CF492C12D9709F08FC1EC
S113074081E090E090932B0180932A0110921D0187
S113075010921C0184C120911A0130911B0124368E
S1130760310508F03EC08D30B9F08F3019F08B3070
S113077011F503C080E0C6DD20C080911E018330E6
S113078029F480E0BFDD10921E0117C08F5F8093B3
S11307901E0182E0B7DD11C080911E01833029F46F
S11307A080E0B0DD10921E0108C08F5F80931E01AF
S11307B081E0A8DD02C080E0A5DD80911C0190915C
S11307C01D01019690931D0180931C01803F9105AA
S11307D009F045C11092250110921D0110921C01CF
S11307E03EC1823010F0289729F41092250181E04F
S11307F089DD35C18D30B9F08F3019F08B3011F5AA
S113080003C080E07FDD2BC180911E01833029F479
S113081080E078DD10921E0122C18F5F80931E015B
S113082082E070DD1CC180911E01833029F480E0D8
S113083069DD10921E0113C18F5F80931E0181E058
S113084061DD0DC180E05EDD0AC12330310509F0B0
S1130850B9C091B7963450F490911F019A3030F09A
S113086091B79F5F91BF10921F0105C090911F0126
S11308709F5F90931F0190912401911129C0809151
S11308801E01833029F480E03DDD10921E0105C075
S11308908F5F80931E0182E035DD80911C01909171
S11308A01D01019690931D0180931C0181359105D2
S11308B00CF4D5C02B9709F0D2C081E090E090935E
S11308C02B0180932A0110921D0110921C01C7C0B4
S11308D020911A0130911B012436310508F03EC0E5
S11308E08D30B9F08F3019F08B3011F503C080E0F2
S11308F009DD20C080911E01833029F480E002DDEF
S113090010921E0117C08F5F80931E0182E0FADCF3
S113091011C080911E01833029F480E0F3DC109231
S11309201E0108C08F5F80931E0181E0EBDC02C0D2
S113093080E0E8DC80911C0190911D010196909368
S11309401D0180931C01803F910509F088C010921D
S1130950240110921D0110921C0181C0823010F0FC
S1130960289729F41092240182E0CCDC78C08D30E1
S1130970B9F08F3019F08B3011F503C080E0C2DC80
S11309806EC080911E01833029F480E0BBDC10929C
S11309901E0165C08F5F80931E0182E0B3DC5FC0DF
S11309A080911E01833029F480E0ACDC10921E019A
S11309B056C08F5F80931E0181E0A4DC50C080E0AC
S11309C0A1DC4DC024303105A9F4CB30D10519F098
S11309D0CD30D10539F481E090E090932B018093E0
S11309E02A013DC02F9719F481E08CDC38C080E0E7
S11309F089DC35C025303105A9F4CB30D10519F097
S1130A00CD30D10539F481E090E090932B018093AF
S1130A102A0125C02F9719F482E074DC20C080E0FD
S1130A2071DC1DC021303105D1F481B790E02091F3
S1130A301A0130911B012817390750F480911F01C6
S1130A40853130F081B7815081BF10921F0105C0FC
S1130A5080911F018F5F80931F01CE01C5DCFF9140
S1130A60EF91DF91CF91BF91AF919F918F917F9142
S1130A706F915F914F913F912F910F900BBE0F900B
S1130A800FBE0F901F9018956FDB16DC1EDC30DC58
S1130A9043DB8FEF81BB78940F2EF8EEEF2EF3E05B
S1130AA0FF2EF02D04E011E0C3E0D0E0F8016191E5
S1130AB071918F0180912A0190912B018E9D90015B
S1130AC08F9D300D9E9D300D112480911A019091BF
S1130AD01B01820F931F1FD0AB019B01ADECBCEC3B
S1130AE037D09695879596958795969587959C0189
S1130AF0220F331F880F991F880F991F880F991F82
S1130B00820F931FBE019A01281B390BC901C5DB53
S1130B10219760F6C7CFAA1BBB1B51E107C0AA1FD0
S1130B20BB1FA617B70710F0A61BB70B881F991F8A
S1130B305A95A9F780959095BC01CD010895EE0FC3
S1130B40FF1F0024001C0BBE0790F691E02D0994B2
S1130B50A29FB001B39FC001A39F700D811D1124FA
S1130B60911DB29F700D811D1124911D0895F8945B
S1050B70FFCFB1
S1130B72E8030C0C01000A006400E8030102040803
S10F0B823F065B4F666D7D277F6F6400AB
S9030000FC
