:100000006DC0000088C0000086C0000084C00000F1
:1000100082C00000ABC1000095C100007CC00000A0
:100020007AC0000078C0000076C0000074C00000F4
:1000300072C0000070C000006EC0000074C20000FA
:100040006AC0000068C0000066C0000064C0000014
:1000500062C0000060C000005EC000005CC0000024
:100060005AC0000058C0000056C0000054C0000034
:1000700052C0000050C000004EC000004CC0000044
:100080004AC0000048C0000046C00000CF00D300B6
:10009000D100D700DD00D500DD00DB00F800DD0079
:1000A000DD00D900E800EC00EA00F000F600EE0008
:1000B000F600F400FA00F600F600F20085025F0296
:1000C0005902900259024D0259024D0272029002E9
:1000D00053022F0290023E025302FC0111241FBE64
:1000E000CFEFD0E1DEBFCDBF11E0A0E0B1E0E2E4B0
:1000F000F9E000E00BBF02C007900D92AC31B107F0
:10010000D9F721E0ACE1B1E001C01D92AC32B207F9
:10011000E1F7A2D314C474CF1092290110922801E0
:1001200010922701109226011092250110922401AD
:10013000109223011092220184E681BF08951BBA18
:100140001ABA18BA17BA15BA14BA12BA8FEF81BB15
:1001500013B812B8109262001092610010926500FC
:1001600083E0809364000895F8941CBE10926D00A3
:10017000E6DF15BE10926A001ABE19BE17BE1092B5
:100180007D00789408958F706623C9F090E0FC019B
:100190003197EC30F10588F4EA5BFF4FB8C383E098
:1001A000089582E0089586E0089584E008958CE043
:1001B000089588E0089589E008958CE0089590E01E
:1001C000FC013197EC30F10588F4EE5AFF4F9FC3E4
:1001D00089E0089581E0089583E0089582E008951C
:1001E00086E0089584E008958CE008958CE00895F9
:1001F00081E0089588E00895807F662329F18034A6
:10020000D9F038F48032A1F0803381F08031D1F41C
:100210000BC08038A9F018F4803661F013C0803923
:10022000C1F1803C59F00EC080E3089580E208954A
:1002300080E6089580E4089580EC089580E80895AC
:1002400080E9089580EC08958034D9F038F4803244
:10025000A1F0803381F08031D1F40BC08038A9F057
:1002600018F4803661F013C08039A9F0803C59F051
:100270000EC080E9089580E1089580E3089580E24A
:10028000089580E6089580E4089580EC089580EC58
:10029000089580E1089580E80895FB01E45FFE4F32
:1002A00020812BBB1A9A1A98805F9E4FFC01808197
:1002B0008BBB1B9A1B9808958FEF8ABB82B18C6011
:1002C00082B91A9A8FE08BBB08958AB78E7F8ABF56
:1002D0008AB782608ABF89B7806189BF8AB78B7FFE
:1002E0008ABF8AB788608ABF89B7806289BF08954C
:1002F0008DE083BF12BE82E087BF8FEF86BF8DE6A1
:1003000081BF0895813051F018F0823071F013C030
:100310008091020161E070DF80930201809103010E
:1003200060E031DF8093030106C08091020161E04B
:1003300063DF809302019091030180910201892B78
:1003400082BB08951F920F920FB60F9211248F93C4
:100350009F9381E090E090932B0180932A019F91DD
:100360008F910F900FBE0F901F9018951F920F92B4
:100370000FB60F9211248F939F9380911A01909141
:100380001B018734910530F0059790931B018093F2
:100390001A0105C0029790931B0180931A01809166
:1003A0001A0190911B018832910598F48EE690E035
:1003B00090931B0180931A0181BF80911A01909143
:1003C0001B018436910518F484E681BF06C081BF05
:1003D00004C084369105D8F7F7CF9F918F910F9085
:1003E0000FBE0F901F9018958031910508F098C0AE
:1003F000FC01E25AFF4F8BC2809126018130B9F493
:10040000109224011092250110922601809127015B
:100410008F5F8093270110920101109200018330B9
:10042000D8F010922B0110922A0176CE0895809177
:100430002501882339F082E090E090932B0180938E
:100440002A010AC080912401882331F083E090E0E2
:1004500090932B0180932A0180E054CF08958091DE
:100460002001813029F480E04DDF109220010895B1
:100470008F5F8093200182E045CF08958091210114
:10048000813029F480E03EDF1092210108958F5FD2
:100490008093210181E036CF089581E0809324018B
:1004A00080E030CF089581E08093250180E02ACF5D
:1004B000089581E08093260180E024CF0895809103
:1004C0002201813049F484E090E090932B018093E5
:1004D0002A0110922201089581E08093230180E097
:1004E00011CF089580912301813049F485E090E097
:1004F00090932B0180932A0110922301089581E0AB
:100500008093220180E0FECE089510922701109280
:100510002601109225011092240180E0F3CE089567
:1005200080E0F0CE08951F920F920FB60F92112423
:100530000BB60F922F933F934F935F936F937F93DD
:100540008F939F93AF93BF93CF93DF93EF93FF93DB
:1005500083B38F70C82FD0E020910001309101014A
:10056000283E93E0390734F42F5F3F4F3093010169
:100570002093000120912A0130912B012230310576
:1005800009F082C091B7903551F090911F019A30D7
:1005900031F491B79F5F91BF10921F0105C09091F8
:1005A0001F019F5F90931F0190912501911129C018
:1005B00080911E01833029F480E0A4DE10921E0198
:1005C00005C08F5F80931E0181E09CDE80911C013D
:1005D00090911D01019690931D0180931C0181341F
:1005E00091400CF424C12D9709F021C181E090E0E5
:1005F00090932B0180932A0110921D0110921C01EF
:1006000016C120911A0130911B012436310500F5E5
:1006100020911C0130911D012C323140CCF480E03E
:1006200071DE20911C0130911D01C901019690934A
:100630001D0180931C01803F910509F0F8C01092C4
:1006400025012E5F3F4F30931D0120931C01EFC009
:10065000823010F0289729F41092250181E052DEB3
:10066000E6C08D3059F08F3019F08B3051F403C053
:1006700080E048DEDCC082E045DED9C081E042DEB9
:10068000D6C080E03FDED3C02330310509F082C000
:1006900091B7903551F090911F019A3031F491B794
:1006A0009F5F91BF10921F0105C090911F019F5F36
:1006B00090931F0190912401911129C080911E01F6
:1006C000833029F480E01EDE10921E0105C08F5F8A
:1006D00080931E0182E016DE80911C0190911D0125
:1006E000019690931D0180931C01813491400CF47C
:1006F0009EC02B9709F09BC081E090E090932B0166
:1007000080932A0110921D0110921C0190C020912B
:100710001A0130911B012436310500F520911C018E
:1007200030911D012C323140CCF480E0EBDD209182
:100730001C0130911D01C901019690931D01809308
:100740001C01803F910509F072C0109224012E5FB8
:100750003F4F30931D0120931C0169C0823010F07F
:10076000289729F41092240182E0CCDD60C08D30FE
:1007700059F08F3019F08B3051F403C080E0C2DDA6
:1007800056C082E0BFDD53C081E0BCDD50C080E0D8
:10079000B9DD4DC024303105A9F4CB30D10519F0B5
:1007A000CD30D10539F481E090E090932B01809316
:1007B0002A013DC02F9719F481E0A4DD38C080E004
:1007C000A1DD35C025303105A9F4CB30D10519F0B4
:1007D000CD30D10539F481E090E090932B018093E6
:1007E0002A0125C02F9719F482E08CDD20C080E01B
:1007F00089DD1DC021303105D1F481B790E0209111
:100800001A0130911B018217930751F080911F014B
:100810008A3031F481B7815081BF10921F0105C029
:1008200080911F018F5F80931F01CE01DDDDFF915D
:10083000EF91DF91CF91BF91AF919F918F917F9178
:100840006F915F914F913F912F910F900BBE0F9041
:100850000FBE0F901F90189587DC2EDD36DD48DD2A
:100860005BDC8FEF81BB78940F2EF8EEEF2EF3E078
:10087000FF2EF02D04E011E0C3E0D0E0F80161911B
:1008800071918F0180912A0190912B018E9D900191
:100890008F9D300D9E9D300D112480911A019091F5
:1008A0001B01820F931F1FD0AB019B01ADECBCEC71
:1008B00037D09695879596958795969587959C01BF
:1008C000220F331F880F991F880F991F880F991FB8
:1008D000820F931FBE019A01281B390BC901DDDC71
:1008E000219760F6C7CFAA1BBB1B51E107C0AA1F07
:1008F000BB1FA617B70710F0A61BB70B881F991FC1
:100900005A95A9F780959095BC01CD010895EE0FF9
:10091000FF1F0024001C0BBE0790F691E02D0994E8
:10092000A29FB001B39FC001A39F700D811D112430
:10093000911DB29F700D811D1124911D0895F89491
:02094000FFCFE7
:10094200E8030C0C01000A006400E8030102040839
:0C0952003F065B4F666D7D277F6F6400E1
:00000001FF
