S01200004C696E655472616365722E7372656329
S11300006DC0000088C0000086C0000084C00000ED
S113001082C00000ABC1000095C100007CC000009C
S11300207AC0000078C0000076C0000074C00000F0
S113003072C0000070C000006EC0000064C2000006
S11300406AC0000068C0000066C0000064C0000010
S113005062C0000060C000005EC000005CC0000020
S11300605AC0000058C0000056C0000054C0000030
S113007052C0000050C000004EC000004CC0000040
S11300804AC0000048C0000046C00000CF00D300B2
S1130090D100D700DD00D500DD00DB00F800DD0075
S11300A0DD00D900E800EC00EA00F000F600EE0004
S11300B0F600F400FA00F600F600F20075024F02B2
S11300C04902800249023D0249023D026202800265
S11300D043021F0280022E024302F00111241FBEBC
S11300E0CFEFD0E1DEBFCDBF11E0A0E0B1E0E6E0AC
S11300F0F9E000E00BBF02C007900D92AA31B107EE
S1130100D9F721E0AAE1B1E001C01D92AA32B207F9
S1130110E1F784D3F6C374CF10922701109226011D
S113012010922501109224011092230110922201B1
S1130130109221011092200184E681BF08951BBA18
S11301401ABA18BA17BA15BA14BA12BA8FEF81BB11
S113015013B812B8109262001092610010926500F8
S113016083E0809364000895F8941CBE10926D009F
S1130170E6DF15BE10926A001ABE19BE17BE1092B1
S11301807D00789408958F706623C9F090E0FC0197
S11301903197EC30F10588F4EA5BFF4F9AC383E0B2
S11301A0089582E0089586E0089584E008958CE03F
S11301B0089588E0089589E008958CE0089590E01A
S11301C0FC013197EC30F10588F4EE5AFF4F81C3FE
S11301D089E0089581E0089583E0089582E0089518
S11301E086E0089584E008958CE008958CE00895F5
S11301F081E0089588E00895807F662329F18034A2
S1130200D9F038F48032A1F0803381F08031D1F418
S11302100BC08038A9F018F4803661F013C080391F
S1130220C1F1803C59F00EC080E3089580E2089546
S113023080E6089580E4089580EC089580E80895A8
S113024080E9089580EC08958034D9F038F4803240
S1130250A1F0803381F08031D1F40BC08038A9F053
S113026018F4803661F013C08039A9F0803C59F04D
S11302700EC080E9089580E1089580E3089580E246
S1130280089580E6089580E4089580EC089580EC54
S1130290089580E1089580E80895FB01E65FFE4F2C
S11302A020812BBB1A9A1A98825F9E4FFC01808191
S11302B08BBB1B9A1B9808958FEF8ABB82B18C600D
S11302C082B91A9A8FE08BBB08958AB78E7F8ABF52
S11302D08AB782608ABF89B7806189BF8AB78B7FFA
S11302E08ABF8AB788608ABF89B7806289BF089548
S11302F08DE083BF12BE82E087BF8FEF86BF8DE69D
S113030081BF0895813051F018F0823071F013C02C
S11303108091000161E070DF809300018091010110
S113032060E031DF8093010106C08091000161E04B
S113033063DF809300019091010180910001892B7A
S113034082BB08951F920F920FB60F9211248F93C0
S11303509F9381E090E090932901809328019F91DD
S11303608F910F900FBE0F901F9018951F920F92B0
S11303700FB60F9211248F939F938091180190913F
S113038019010597909319018093180182339105FF
S1130390A0F480EA90E0909319018093180180EA18
S11303A081BF80911801909119018E36910518F43E
S11303B08EE681BF06C081BF04C08E369105D8F792
S11303C0F7CF9F918F910F900FBE0F901F901895AC
S11303D08031910508F094C0FC01E25AFF4F79C2C4
S11303E080912401813099F410922201109223010A
S11303F010922401809125018F5F80932501833021
S1130400D8F0109229011092280186CE0895809187
S11304102301882339F082E090E0909329018093AE
S113042028010AC080912201882331F083E090E002
S1130430909329018093280180E064CF08958091EE
S11304401E01813029F480E05DDF10921E010895C1
S11304508F5F80931E0182E055CF089580911F0124
S1130460813029F480E04EDF10921F0108958F5FE0
S113047080931F0181E046CF089581E0809322019B
S113048080E040CF089581E08093230180E03ACF5B
S1130490089581E08093240180E034CF0895809111
S11304A02001813049F484E090E090932901809305
S11304B0280110922001089581E08093210180E0B9
S11304C021CF089580912101813049F485E090E0A5
S11304D0909329018093280110922101089581E0CD
S11304E08093200180E00ECF089510922501109290
S11304F02401109223011092220180E003CF089579
S113050080E000CF08951F920F920FB60F9211242E
S11305100BB60F922F933F934F935F936F937F93F9
S11305208F939F93AF93BF93CF93DF93EF93FF93F7
S113053083B38F70C82FD0E0209128013091290116
S11305402230310509F082C091B7943651F0909170
S11305501D019A3031F491B79F5F91BF10921D0134
S113056005C090911D019F5F90931D0190912301FF
S1130570911129C080911C01833029F480E0C2DEEE
S113058010921C0105C08F5F80931C0181E0BADECC
S113059080911A0190911B01019690931B01809305
S11305A01A01813491400CF424C12D9709F021C122
S11305B081E090E0909329018093280110921B011F
S11305C010921A0116C12091180130911901243694
S11305D0310500F520911A0130911B012C32314074
S11305E0CCF480E08FDE20911A0130911B01C90107
S11305F0019690931B0180931A01803F910509F0A5
S1130600F8C0109223012E5F3F4F30931B012093BB
S11306101A01EFC0823010F0289729F410922301B8
S113062081E070DEE6C08D3059F08F3019F08B30E8
S113063051F403C080E066DEDCC082E063DED9C032
S113064081E060DED6C080E05DDED3C023303105BA
S113065009F082C091B7943651F090911D019A30FF
S113066031F491B79F5F91BF10921D0105C0909125
S11306701D019F5F90931D0190912201911129C04A
S113068080911C01833029F480E03CDE10921C012F
S113069005C08F5F80931C0182E034DE80911A01D3
S11306A090911B01019690931B0180931A01813450
S11306B091400CF49EC02B9709F09BC081E090E020
S11306C0909329018093280110921B0110921A0122
S11306D090C020911801309119012436310500F59C
S11306E020911A0130911B012C323140CCF480E06E
S11306F009DE20911A0130911B01C90101969093E2
S11307001B0180931A01803F910509F072C0109279
S113071022012E5F3F4F30931B0120931A0169C0C1
S1130720823010F0289729F41092220182E0EADD49
S113073060C08D3059F08F3019F08B3051F403C004
S113074080E0E0DD56C082E0DDDD53C081E0DADD2B
S113075050C080E0D7DD4DC024303105A9F4CB3042
S1130760D10519F0CD30D10539F481E090E09093B2
S11307702901809328013DC02F9719F481E0C2DD3F
S113078038C080E0BFDD35C025303105A9F4CB3059
S1130790D10519F0CD30D10539F481E090E0909382
S11307A029018093280125C02F9719F482E0AADD3E
S11307B020C080E0A7DD1DC021303105D1F481B710
S11307C090E020911801309119018217930751F09C
S11307D080911D018A3031F481B7815081BF10921C
S11307E01D0105C080911D018F5F80931D01CE0105
S11307F0EFDDFF91EF91DF91CF91BF91AF919F9189
S11308008F917F916F915F914F913F912F910F90B5
S11308100BBE0F900FBE0F901F901895A5DC4CDDFA
S113082054DD66DD79DC8FEF81BB78940F2EF8EE12
S1130830EF2EF3E0FF2EF02D02E011E0C3E0D0E054
S1130840F801619171918F018091280190912901A2
S11308508E9D90018F9D300D9E9D300D11248091B1
S1130860180190911901820F931F1FD0AB019B01B6
S1130870ADECBCEC37D09695879596958795969573
S113088087959C01220F331F880F991F880F991F8A
S1130890880F991F820F931FBE019A01281B390BE1
S11308A0C901FBDC219760F6C7CFAA1BBB1B51E132
S11308B007C0AA1FBB1FA617B70710F0A61BB70BCC
S11308C0881F991F5A95A9F780959095BC01CD0171
S11308D00895EE0FFF1F0024001C0BBE0790F69135
S11308E0E02D0994A29FB001B39FC001A39F700D96
S11308F0811D1124911DB29F700D811D1124911D24
S10909000895F894FFCFF6
S11309060C0C01000A006400E803010204083F0617
S10D09165B4F666D7D277F6F640060
S9030000FC
