S01200004C696E655472616365722E7372656329
S11300005DC0000078C0000076C0000074C000002D
S113001072C000005EC1000048C100006CC0000056
S11300206AC0000068C0000066C0000064C0000030
S113003062C0000060C000005EC00000ABC10000F0
S11300405AC0000058C0000056C0000054C0000050
S113005052C0000050C000004EC000004CC0000060
S11300604AC0000048C0000046C0000044C0000070
S113007042C0000040C000003EC000003CC0000080
S11300803AC0000038C0000036C00000AC00B00028
S1130090AE00B400BA00B200BA00B800D500BA008D
S11300A0BA00B600C500C900C700CD00D300CB001C
S11300B0D300D100D700D300D300CF0011241FBE3A
S11300C0CFEFD0E1DEBFCDBF11E0A0E0B1E0ECE3C3
S11300D0F7E000E00BBF02C007900D92AA31B10710
S11300E0D9F721E0AAE1B1E001C01D92AE32B20716
S11300F0E1F7BFD221C384CF1BBA1ABA18BA17BA10
S113010015BA14BA12BA8FEF81BB13B812B8109291
S11301106200109261001092650083E08093640095
S11301200895F8941CBE10926D00E6DF15BE10927F
S11301306A001ABE19BE17BE10927D007894089505
S11301408F706623C9F090E0FC013197EC30F10523
S113015088F4EA5BFF4FD8C283E0089582E00895F3
S113016086E0089584E008958CE0089588E0089579
S113017089E008958CE0089590E0FC013197EC301B
S1130180F10588F4EE5AFF4FBFC289E0089581E07B
S1130190089583E0089582E0089586E0089584E058
S11301A008958CE008958CE0089581E0089588E036
S11301B00895807F662329F18034D9F038F48032A1
S11301C0A1F0803381F08031D1F40BC08038A9F0E4
S11301D018F4803661F013C08039C1F1803C59F0C5
S11301E00EC080E3089580E2089580E6089580E4D7
S11301F0089580EC089580E8089580E9089580ECDE
S113020008958034D9F038F48032A1F0803381F03D
S11302108031D1F40BC08038A9F018F4803661F035
S113022013C08039A9F0803C59F00EC080E90895CC
S113023080E1089580E3089580E2089580E60895BA
S113024080E4089580EC089580EC089580E1089599
S113025080E80895FB01E45FFE4F20812BBB1A9ACE
S11302601A98805F9E4FFC0180818BBB1B9A1B9860
S113027008958FEF8ABB82B18C6082B91A9A8FE09D
S11302808BBB08958AB78E7F8ABF8AB782608ABF84
S113029089B7806189BF8AB78B7F8ABF8AB7886034
S11302A08ABF89B7806289BF08951F920F920FB6E3
S11302B00F9211248F939F9381E090E090932D01EE
S11302C080932C019F918F910F900FBE0F901F90E0
S11302D018951F920F920FB60F9211248F939F932C
S11302E081B790E001978A30910528F090932B0113
S11302F080932A0106C080E890E090932B018093BC
S11303002A0180912A0181BF9F918F910F900FBE86
S11303100F901F901895CF93DF9300D000D0CDB7E6
S1130320DEB721E030E03A83298329813A81281716
S11303303907FCF441E050E05C834B832B813C8122
S1130340203931405CF42B813C812F5F3F4F3C834B
S11303502B832B813C8120393140ACF329813A81B4
S11303602F5F3F4F3A83298329813A812817390720
S11303701CF30F900F900F900F90DF91CF91089581
S11303808EE083BF12BE82E087BF8FEF86BF8FE30C
S113039081BF08951F920F920FB60F9211240BB6CE
S11303A00F920F931F932F933F934F935F936F93EA
S11303B07F938F939F93AF93BF93CF93EF93FF93C9
S11303C080912C0190912D01892B09F43CC183B3B8
S11303D0C82FCF70809124019091250101969093AC
S11303E0250180932401809122019091230101969B
S11303F09093230180932201CB3071F038F4CC2305
S113040009F452C0C73009F441C0E1C0CD3009F14C
S1130410CE3009F442C0DBC0809102019091030107
S113042001968F30910528F4909303018093020183
S113043006C08EE090E090930301809302018091C6
S113044000019091010101979093010180930001B3
S1130450BEC0809102019091030101979093030122
S113046080930201809100019091010101968F30E7
S1130470910528F49093010180930001A8C08EE0B7
S113048090E09093010180930001A1C081E090E08D
S113049090932101809320019AC081E090E0909391
S11304A01F0180931E0193C080911E0190911F0132
S11304B0892B09F437C010921F0110921E0108E223
S11304C011E061E0F801808174DE90E090932901ED
S11304D08093280185E090E01EDF61E0F8018081CF
S11304E068DE90E0909329018093280185E090E0F4
S11304F012DF61E0F80180815CDE90E090932901D5
S11305008093280185E090E006DF61E0F8018081B6
S113051050DE90E0909329018093280185E090E0DB
S1130520FADE55C08091200190912101892B09F4B4
S113053037C0109221011092200106E211E061E01F
S1130540F801808136DE90E09093270180932601A4
S113055085E090E0E0DE61E0F80180812ADE90E051
S1130560909327018093260185E090E0D4DE61E03A
S1130570F80180811EDE90E090932701809326018C
S113058085E090E0C8DE61E0F801808112DE90E051
S1130590909327018093260185E090E0BCDE17C08C
S11305A080911A0190911B018330910529F41092D6
S11305B02D0110922C010BC020911C0130911D01C2
S11305C0232B29F0019690931B0180931A0120910B
S11305D02401309125018091020190910301821739
S11305E0930768F461E080912801E3DD90E0909343
S11305F02901809328011092250110922401209151
S11306002201309123018091000190910101821710
S1130610930768F460E08091260192DD90E0909366
S113062027018093260110922301109222019091B8
S1130630260180912801892B82BB8C2F90E0909316
S11306401D0180931C01FF91EF91CF91BF91AF9158
S11306509F918F917F916F915F914F913F912F91D6
S11306601F910F910F900BBE0F900FBE0F901F9014
S1130670189557DDFEDD06DE83DE789481B790E0C1
S113068090932B0180932A0104E011E0C3E0D0E0B1
S1130690F801619171918F0180912A0190912B0150
S11306A01FD0AB019B01ADECBCEC37D09695879580
S11306B096958795969587959C01220F331F880FF1
S11306C0991F880F991F880F991F820F931FBE01CE
S11306D09A01281B390BC901BDDD2197C8F6CECF7D
S11306E0AA1BBB1B51E107C0AA1FBB1FA617B70754
S11306F010F0A61BB70B881F991F5A95A9F7809570
S11307009095BC01CD010895EE0FFF1F0024001C3D
S11307100BBE0790F691E02D0994A29FB001B39F00
S1130720C001A39F700D811D1124911DB29F700DF6
S10F0730811D1124911D0895F894FFCF41
S113073C0700070001000A006400E8030102040832
S10D074C3F065B4F666D7D277F6F4B
S9030000FC
