S01200004C696E655472616365722E7372656329
S11300006DC0000088C0000086C0000084C00000ED
S113001082C0000098C1000082C100007CC00000C2
S11300207AC0000078C0000076C0000074C00000F0
S113003072C0000070C000006EC0000026C2000044
S11300406AC0000068C0000066C0000064C0000010
S113005062C0000060C000005EC000005CC0000020
S11300605AC0000058C0000056C0000054C0000030
S113007052C0000050C000004EC000004CC0000040
S11300804AC0000048C0000046C00000BC00C000D8
S1130090BE00C400CA00C200CA00C800E500CA000D
S11300A0CA00C600D500D900D700DD00E300DB009C
S11300B0E300E100E700E300E300DF00390213029C
S11300C042024202420242020D020102260242029E
S11300D04202FB014202FE010702CD0111241FBEB0
S11300E0CFEFD0E1DEBFCDBF11E0A0E0B1E0E6E9A3
S11300F0F6E000E00BBF02C007900D92A831B107F3
S1130100D9F721E0A8E1B1E001C01D92A232B20703
S1130110E1F75AD2BEC274CF1BBA1ABA18BA17BAC8
S113012015BA14BA12BA8FEF81BB13B812B8109271
S11301306200109261001092650083E08093640075
S11301400895F8941CBE10926D00E6DF15BE10925F
S11301506A001ABE19BE17BE10927D0078940895E5
S11301608F706623C9F090E0FC013197EC30F10503
S113017088F4EA5BFF4F75C283E0089582E0089536
S113018086E0089584E008958CE0089588E0089559
S113019089E008958CE0089590E0FC013197EC30FB
S11301A0F10588F4EE5AFF4F5CC289E0089581E0BE
S11301B0089583E0089582E0089586E0089584E038
S11301C008958CE008958CE0089581E0089588E016
S11301D00895807F662329F18034D9F038F4803281
S11301E0A1F0803381F08031D1F40BC08038A9F0C4
S11301F018F4803661F013C08039C1F1803C59F0A5
S11302000EC080E3089580E2089580E6089580E4B6
S1130210089580EC089580E8089580E9089580ECBD
S113022008958034D9F038F48032A1F0803381F01D
S11302308031D1F40BC08038A9F018F4803661F015
S113024013C08039A9F0803C59F00EC080E90895AC
S113025080E1089580E3089580E2089580E608959A
S113026080E4089580EC089580EC089580E1089579
S113027080E80895FB01E65FFE4F20812BBB1A9AAC
S11302801A98825F9E4FFC0180818BBB1B9A1B983E
S113029008958FEF8ABB82B18C6082B91A9A8FE07D
S11302A08BBB08958AB78E7F8ABF8AB782608ABF64
S11302B089B7806189BF8AB78B7F8ABF8AB7886014
S11302C08ABF89B7806289BF08958EE083BF12BE5A
S11302D082E087BF8FEF86BF84E681BF08958130B7
S11302E051F018F0823071F013C08091000161E088
S11302F070DF809300018091010160E031DF809321
S1130300010106C08091000161E063DF8093000178
S11303109091010180910001892B82BB08951F9265
S11303200F920FB60F9211248F939F9381E090E068
S113033090932101809320019F918F910F900FBE84
S11303400F901F9018951F920F920FB60F921124C1
S11303508F939F9381B790E005978E31910528F094
S113036090931F0180931E0106C084E690E0909351
S11303701F0180931E0180911E0181BF9F918F9167
S11303800F900FBE0F901F9018958031910508F0C3
S113039079C0FC01E25AFF4F64C180911C01813095
S11303A091F410921A0110921B0110921C01809179
S11303B01D018F5F80931D018330D0F010922101C5
S11303C010922001089580911B01882339F082E066
S11303D090E090932101809320010AC080911A013A
S11303E0882331F083E090E09093210180932001F1
S11303F080E075CF089582E072CF089581E06FCFD9
S1130400089581E080931A0180E069CF089581E026
S113041080931B0180E063CF089581E080931C01E9
S113042080E05DCF089580911801813049F484E023
S113043090E0909321018093200110921801089577
S113044081E08093190180E04ACF089580911901D9
S1130450813049F485E090E090932101809320015C
S113046010921901089581E08093180180E037CF3C
S1130470089510921C0110921B0110921A0180E041
S11304802ECF089580E02BCF08951F920F920FB6C0
S11304900F9211240BB60F922F933F934F935F93B8
S11304A06F937F938F939F93AF93BF93CF93DF9378
S11304B0EF93FF9383B38F70C82FD0E02091200176
S11304C03091210122303105C9F490911B01911121
S11304D00CC081E004DF2D9709F061C081E090E059
S11304E090932101809320015AC0823010F0289704
S11304F011F410921B0180E0F2DE51C0233031056B
S1130500C9F490911A0191110CC082E0E8DE2B9796
S113051009F045C081E090E090932101809320018F
S11305203EC0823010F0289711F410921A0180E036
S1130530D6DE35C024303105A9F4CB30D10519F00D
S1130540CD30D10539F481E090E09093210180937E
S1130550200125C02F9719F481E0C1DE20C080E07E
S1130560BEDE1DC025303105A9F4CB30D10519F00C
S1130570CD30D10539F481E090E09093210180934E
S113058020010DC02F9719F482E0A9DE08C080E095
S1130590A6DE05C02130310511F4CE01F6DEFF914F
S11305A0EF91DF91CF91BF91AF919F918F917F9107
S11305B06F915F914F913F912F910F900BBE0F90D0
S11305C00FBE0F901F901895BCDD63DE6BDE7DDEE1
S11305D08FEF81BB789481B790E090931F01809353
S11305E01E0102E011E0C3E0D0E0F80161917191D5
S11305F08F0180911E0190911F011FD0AB019B01BF
S1130600ADECBCEC37D096958795969587959695E5
S113061087959C01220F331F880F991F880F991FFC
S1130620880F991F820F931FBE019A01281B390B53
S1130630C90120DE2197C8F6CECFAA1BBB1B51E10E
S113064007C0AA1FBB1FA617B70710F0A61BB70B3E
S1130650881F991F5A95A9F780959095BC01CD01E3
S11306600895EE0FFF1F0024001C0BBE0790F691A7
S1130670E02D0994A29FB001B39FC001A39F700D08
S1130680811D1124911DB29F700D811D1124911D96
S10906900895F894FFCF69
S11306960C0C01000A006400E803010204083F068A
S10B06A65B4F666D7D277F6F39
S9030000FC
