S01400004750494F65786572636973652E7372656389
S113000045C0000058C0000056C0000054C00000A5
S113001052C0000050C000004EC000004CC00000A0
S11300204AC0000048C0000046C0000044C00000B0
S113003042C0000040C000003EC000003CC00000C0
S11300403AC0000038C0000036C0000034C00000D0
S113005032C0000030C000002EC000002CC00000E0
S11300602AC0000028C0000026C0000024C00000F0
S113007022C0000020C000001EC000001CC0000000
S11300801AC0000018C0000016C0000011241FBED2
S1130090CFEFD0E1DEBFCDBF11E0A0E0B1E0E2E3FD
S11300A0F2E000E00BBF02C007900D92A631B10749
S11300B0D9F797D0BCC0A4CF80EF809361008FEFB5
S11300C08ABB8CE082B9109264000895FB01E85F5A
S11300D0FE4F20812BBB24E023B913B8845F9E4FCD
S11300E0FC0180818BBB88E083B913B88FE99FE062
S11300F00197F1F700C000000895BF92CF92DF92FC
S1130100EF92FF920F931F93CF93DF930F2EFFE095
S1130110BF2EF02DE12CF12C0F2EF3E6CF2ED12C97
S1130120F02D20E1E21627E2F20659F03FEFE31644
S1130130F30649F40F2EFFE0EF2EF7E2FF2EF02D29
S113014002C0E12CF12C00E011E0C3E0D0E0F801A2
S1130150619171918F01C70147D0AB019B01ADEC57
S1130160BCEC56D0969587959695879596958795E8
S11301709C01220F331F880F991F880F991F880F26
S1130180991F820F931FBE019A01281B390BC901C5
S11301909DDF2197E0F6F60180818F30A9F0FFE022
S11301A0BF1212C0F6018081873019F4FFEFEF1AF5
S11301B0FF0AF60180818B3019F4F1E0EF1AF1089F
S11301C0F60180818E3019F0F601B080AACFDF915C
S11301D0CF911F910F91FF90EF90DF90CF90BF9040
S11301E008956ADF8ADFFECFAA1BBB1B51E107C05B
S11301F0AA1FBB1FA617B70710F0A61BB70B881FB3
S1130200991F5A95A9F780959095BC01CD01089541
S1130210A29FB001B39FC001A39F700D811D112443
S1130220911DB29F700D811D1124911D0895F894A4
S1050230FFCFFA
S113023201000A006400E803010204083F065B4F60
S1090242666D7D277F6F4D
S9030000FC
