:1000000045C0000060C000005EC000005CC0000091
:100010005AC00000FEC0000025C1000054C000000E
:1000200052C0000050C000004EC000004CC0000094
:100030004AC0000048C0000046C0000044C00000A4
:1000400042C0000040C0000036C100003CC00000BB
:100050003AC0000038C0000036C0000034C00000C4
:1000600032C0000030C000002EC000002CC00000D4
:100070002AC0000028C0000026C0000024C00000E4
:1000800022C0000020C000001EC0000011241FBEBE
:10009000CFEFD0E1DEBFCDBF11E0A0E0B1E0EEEAEE
:1000A000F3E000E00BBF02C007900D92A631B1074C
:1000B000D9F721E0A6E1B1E001C01D92AE31B2074F
:1000C000E1F708D172C19CCF8FEF8ABB82B18C60FF
:1000D00082B91A9A8FE08BBB0895119A10981092EA
:1000E000900087E689B988E18AB9579A08958AB756
:1000F0008E7F8ABF8AB782608ABF89B7806189BFD5
:100100008AB78B7F8ABF8AB788608ABF89B78062C7
:1001100089BF0895FB01E85FFE4F20812BBB1A9A2F
:100120001A98845F9E4FFC0180818BBB1B9A1B98A1
:100130000895EF92FF920F931F93CF93DF937C016B
:10014000C0E0D1E0EDE1F1E009E111E069917991E0
:10015000C70108D1AB019B01ADECBCEC17D1969562
:10016000879596958795969587959C01220F331FC5
:10017000880F991F880F991F880F991F820F931F4F
:10018000481B590B405D4293E017F107F9F689E1EE
:1001900091E0DF91CF911F910F91FF90EF90089523
:1001A000FC019081992339F031965D9BFECF9CB97B
:1001B00091919111FACF5D9BFECF8DE08CB95D9B43
:1001C000FECF8AE08CB90895209117013091180173
:1001D000820F931F803127E2920729F410921801B1
:1001E000109217010FC08F3F2FEF920729F09093C5
:1001F00018018093170106C08FE097E290931801D1
:1002000080931701809117019091180192DFC8CF58
:1002100008951F920F920FB60F9211240BB60F92F2
:100220002F933F934F935F936F937F938F939F93FE
:10023000AF93BF93EF93FF9381E090E0C5DFFF9111
:10024000EF91BF91AF919F918F917F916F915F914E
:100250004F913F912F910F900BBE0F900FBE0F90BB
:100260001F9018951F920F920FB60F9211240BB684
:100270000F922F933F934F935F936F937F938F933F
:100280009F93AF93BF93EF93FF938FEF9FEF9CDF0D
:10029000FF91EF91BF91AF919F918F917F916F915E
:1002A0005F914F913F912F910F900BBE0F900FBE1A
:1002B0000F901F9018951F920F920FB60F92112456
:1002C0008F938CB1809316018F910F900FBE0F907A
:1002D0001F90189502DFF8DE0ADF789480911701ED
:1002E0009091180126DF5CDF00E011E0C3E0D0E070
:1002F000F801619171918F0180911701909118011E
:1003000031D0AB019B01ADECBCEC40D0969587950C
:1003100096958795969587959C01220F331F880F98
:10032000991F880F991F880F991F820F931FBE0175
:100330009A01281B390BC901EDDE2197C8F680917F
:1003400016018F7D853531F481E090E03DDF10921C
:100350001601CACF843441F68FEF9FEF35DF10923C
:100360001601C2CFAA1BBB1B51E107C0AA1FBB1FAE
:10037000A617B70710F0A61BB70B881F991F5A9531
:10038000A9F780959095BC01CD010895A29FB00179
:10039000B39FC001A39F700D811D1124911DB29FB9
:0E03A000700D811D1124911D0895F894FFCF5A
:1003AE0001000A006400E803010204083F065B4FE7
:0603BE00666D7D277F6FD4
:00000001FF
