S00C00006578616D2E737265636D
S113000045C0000060C000005EC000005CC000008D
S11300105AC0000032C100005FC1000054C000009B
S113002052C0000050C000004EC000004CC0000090
S11300304AC0000048C0000046C000008BC1000058
S113004042C0000040C0000076C100003CC0000077
S11300503AC0000038C0000036C0000034C00000C0
S113006032C0000030C000002EC000002CC00000D0
S11300702AC0000028C0000026C0000024C00000E0
S113008022C0000020C000001EC0000011241FBEBA
S1130090CFEFD0E1DEBFCDBF11E0A0E0B1E0ECE6F0
S11300A0F4E000E00BBF02C007900D92A431B10749
S11300B0D9F721E0A4E1B1E001C01D92A032B2075A
S11300C0E1F79CD1D1C19CCF8FEF8ABB82B18C6008
S11300D082B91A9A8FE08BBB0895119A10981092E6
S11300E0900087E689B988E18AB9579A08958AB752
S11300F08E7F8ABF8AB782608ABF89B7806189BFD1
S11301008AB78B7F8ABF8AB788608ABF89B78062C3
S113011089BF08958EE083BF12BE82E087BF8FEF50
S113012086BF8CE781BF0895EF92FF920F931F93D0
S1130130CF93DF937C01C7E0D1E0EFE1F1E00BE185
S113014011E069917991C7016CD1AB019B01ADECD0
S1130150BCEC7BD1969587959695879596958795D2
S11301609C01220F331F880F991F880F991F880F36
S1130170991F820F931F481B590B405D4293E01750
S1130180F107F9F68BE191E0DF91CF911F910F9187
S1130190FF90EF900895FC019081992339F03196F6
S11301A05D9BFECF9CB991919111FACF5D9BFECFDF
S11301B08DE08CB95D9BFECF8AE08CB90895809167
S11301C063008F708F30A9F1809106018F3089F51B
S11301D0809163008B30B9F018F4873031F029C076
S11301E08D30E1F08E30F9F024C0809100019091BF
S11301F0010199230CF4019695958795909301013B
S11302008093000116C08091000190910101880F34
S1130210991F90930101809300010BC010921A0161
S11302201092190106C08091190190911A017CDF86
S1130230B2DF809163008093060108952091190133
S113024030911A01820F931F803127E292073CF00C
S11302508051974290931A0180931901089599232C
S11302602CF090931A01809319010895805F984DA2
S113027090931A018093190108951F920F920FB65B
S11302800F9211240BB60F922F933F934F935F93CA
S11302906F937F938F939F93AF93BF93EF93FF934A
S11302A088EE93E0CBDF8091190190911A013CDF35
S11302B072DFFF91EF91BF91AF919F918F917F91E9
S11302C06F915F914F913F912F910F900BBE0F90C3
S11302D00FBE0F901F9018951F920F920FB60F929A
S11302E011240BB60F922F933F934F935F936F9309
S11302F07F938F939F93AF93BF93EF93FF9388E183
S11303009CEF9CDF8091190190911A010DDF43DF6E
S1130310FF91EF91BF91AF919F918F917F916F91D9
S11303205F914F913F912F910F900BBE0F900FBE95
S11303300F901F9018951F920F920FB60F921124D1
S11303408F938CB1809318018F910F900FBE0F90F3
S11303501F9018951F920F920FB60F9211240BB68F
S11303600F922F933F938F939F93EF93FF938091DB
S1130370160190911701019690931701809316012D
S113038020910001309101012817390754F5E091BB
S11303901401F0E0E15FFE4F80818BBB1A9A1A983A
S11303A0E091150181E08E0F80931501F0E0EE5F7E
S11303B0FE4F80818BBB1B9A1B9880911501843062
S11303C060F010921501809114018F5F843018F44D
S11303D08093140102C0109214011092170110921C
S11303E01601FF91EF919F918F913F912F910F9063
S11303F00BBE0F900FBE0F901F9018956EDE64DE3B
S113040076DE1092640086DE789480911801882349
S113041031F010921A011092190110921801CFDED6
S1130420F4CFAA1BBB1B51E107C0AA1FBB1FA61711
S1130430B70710F0A61BB70B881F991F5A95A9F789
S113044080959095BC01CD010895A29FB001B39F02
S1130450C001A39F700D811D1124911DB29F700DC9
S10F0460811D1124911D0895F894FFCF14
S113046C6400010608300F01000A006400E803016F
S107047C020408006A
S9030000FC
