:1000000045C0000060C000005EC000005CC0000091
:100010005AC000008BC00000ABC0000054C00000FC
:1000200052C0000050C000004EC000004CC0000094
:100030004AC0000048C0000046C0000044C00000A4
:1000400042C0000040C000003EC000003CC00000B4
:100050003AC0000038C0000036C0000034C00000C4
:1000600032C0000030C000002EC000002CC00000D4
:100070002AC0000028C0000026C0000024C00000E4
:1000800022C0000020C000001EC0000011241FBEBE
:10009000CFEFD0E1DEBFCDBF11E0A0E0B1E0E8E5F9
:1000A000F2E000E00BBF02C007900D92A631B1074D
:1000B000D9F721E0A6E1B1E001C01D92A831B20755
:1000C000E1F776D0C7C09CCFFB01E85FFE4F2081EF
:1000D0002BBB24E023B913B8845F9E4FFC018081C1
:1000E0008BBB88E083B913B808958FEF8ABB80EF8C
:1000F00080936100109264008CE082B984E083B93F
:100100008FE08BBB08958AB78E7F8ABF8AB78260E3
:100110008ABF89B7806189BF8AB78B7F8ABF8AB758
:1001200088608ABF89B7806289BF08951F920F9245
:100130000FB60F9211242F938F939F9380911601E6
:10014000909117018F3027E2920729F4109217013E
:100150001092160105C00196909317018093160125
:100160009F918F912F910F900FBE0F901F90189518
:100170001F920F920FB60F9211248F939F9380912D
:10018000160190911701009739F48FE097E2909350
:1001900017018093160105C0019790931701809372
:1001A00016019F918F910F900FBE0F901F90189581
:1001B0009CDFA9DF789400E011E0C3E0D0E0F80113
:1001C000619171918F0180911601909117011FD05B
:1001D000AB019B01ADECBCEC2ED096958795969526
:1001E0008795969587959C01220F331F880F991F3D
:1001F000880F991F880F991F820F931FBE019A01C4
:10020000281B390BC90160DF2197C8F6D4CFAA1B80
:10021000BB1B51E107C0AA1FBB1FA617B70710F0F1
:10022000A61BB70B881F991F5A95A9F78095909523
:10023000BC01CD010895A29FB001B39FC001A39F4F
:10024000700D811D1124911DB29F700D811D11240F
:08025000911D0895F894FFCF01
:1002580001000A006400E803010204083F065B4F3E
:06026800666D7D277F6F2B
:00000001FF
